:020000040800F2
:1000000000000220A91500081504000817040008C4
:10001000190400081B0400081D040008000000006B
:100020000000000000000000000000001F040008A5
:100030002104000800000000230400082504000833
:10004000F9150008F9150008F9150008F915000858
:10005000F9150008F9150008F9150008F915000848
:10006000F9150008F9150008F9150008F915000838
:10007000F9150008F9150008F9150008F915000828
:10008000F9150008F9150008F9150008000000002E
:10009000000000000000000000000000F91500084A
:1000A000F9150008F9150008F9150008F9150008F8
:1000B000F9150008F9150008F9150008F9150008E8
:1000C000F9150008F9150008F9150008F9150008D8
:1000D000F91500082D040008F915000800000000BB
:1000E000F9150008F9150008F915000800000000CE
:1000F000000000000000000000000000F9150008EA
:1001000000000000F9150008F9150008F9150008AD
:1001100000000000000000000000000000000000DF
:10012000F9150008F9150008F9150008F915000877
:10013000F9150008000000000000000000000000A9
:10014000000000000000000000000000F915000899
:10015000F9150008F9150008F9150008F915000847
:10016000F9150008F9150008000000000000000063
:10017000000000000000000000000000000000007F
:1001800000000000F9150008000000000000000059
:08019000F9150008F91500083B
:1001980053B94AB9002908BF00281CBF4FF0FF31E6
:1001A8004FF0FF3000F00CB8ADF1080C6DE904CE4B
:1001B80001F04CFADDF804E0DDE9022304B07047F1
:1001C800704700BF0348044B834202D0034B03B17E
:1001D800184770470C0000200C00002000000000A9
:1001E8000548064B1B1AD90F01EBA301491002D091
:1001F800034B03B1184770470C0000200C00002087
:100208000000000010B5064C237843B9FFF7DAFF69
:10021800044B13B10448AFF300800123237010BDD1
:100228000C000020000000001019000808B5054B5C
:100238001BB105490548AFF30080BDE80840FFF74A
:10024800CFBF00BF000000001000002010190008F8
:1002580030B589B000240394049405940694079457
:100268000094194B1A6B42F004021A631A6B02F0DD
:1002780004020092009A01941A6B42F080021A63F9
:100288001A6B02F080020192019A02941A6B42F0F2
:1002980001021A631B6B03F001030293029B0B4DCF
:1002A80022464FF40051284600F02AFD4FF400532F
:1002B8000393012304930594069403A9284600F0A8
:1002C8003BFC09B030BD00BF0038024000080240C6
:1002D80072B6FEE708B50A480A4B03604FF4165396
:1002E800436000238360C36003610C224261836121
:1002F800C36100F03BFF00B908BDFFF7E9FF00BF8D
:10030800280000200010014000B595B030220021DF
:1003180008A801F093F90023039304930593069327
:10032800079301931F4A116C41F080511164126CBC
:1003380002F080520192019A02931B4B1A6842F410
:1003480040421A601B6803F440430293029B012356
:1003580008934FF48033099302230E934FF48002DD
:100368000F920C221092602211921293042313937D
:1003780008A800F0BBF888B90F230393022304935D
:10038800002305934FF4805206920793032103A894
:1003980000F0FCFA20B915B05DF804FBFFF798FFF0
:1003A800FFF796FF003802400070004000B585B0A6
:1003B800134B93E8070004AB03E9070000F0A6FD20
:1003C800FFF7A2FFFFF744FFFFF784FF0D4C012260
:1003D8004FF40051204600F093FC40F2B63000F094
:1003E800C1FD00224FF40051204600F089FC322064
:1003F80000F0B8FD0B2201A9034800F0E7FEE5E78D
:10040800281900080008024028000020FEE7FEE73F
:10041800FEE7FEE7FEE770477047704708B500F053
:100428008FFD08BD08B5024800F078FF08BD00BF81
:100438002800002082B0002100910B4B5A6C42F436
:1004480080425A645A6C02F480420092009A0191E8
:100458001A6C42F080521A641B6C03F080530193AB
:10046800019B02B0704700BF0038024010B588B049
:10047800002303930493059306930793026803F1FB
:10048800804303F588339A4201D008B010BD002498
:10049800019403F594335A6C42F010025A645A6C72
:1004A80002F010020192019A02941A6B42F00102C2
:1004B8001A631B6B03F001030293029B4FF4C063A2
:1004C800039302230493032306930723079303A9A3
:1004D800054800F031FB22462146252000F0C8FCE3
:1004E800252000F0D5FCD0E700000240002800F0ED
:1004F800E08170B582B00446036813F0010F3BD069
:100508009F4B9B6803F00C03042B2CD09C4B9B68DF
:1005180003F00C03082B21D06368B3F5803F4FD05C
:10052800B3F5A02F52D0964B1A6822F480321A6085
:100538001A6822F480221A606368002B50D000F0F9
:100548000BFD05468E4B1B6813F4003F14D100F0D9
:1005580003FD401B6428F5D90320B1E1884B5B6893
:1005680013F4800FD8D0864B1B6813F4003F03D0D8
:100578006368002B00F09F81236813F0020F54D0AA
:100588007F4B9B6813F00C0F3ED07D4B9B6803F0AC
:100598000C03082B33D0E368002B68D0794B012279
:1005A8001A6000F0D9FC0546754B1B6813F0020F62
:1005B80054D100F0D1FC401B0228F5D903207FE17B
:1005C8006F4A136843F480331360B5E76C4B1A68BD
:1005D80042F480221A601A6842F480321A60ABE74B
:1005E80000F0BAFC0546664B1B6813F4003FC3D005
:1005F80000F0B2FC401B6428F5D9032060E1604B91
:100608005B6813F4800FC6D15D4B1B6813F0020FB3
:1006180003D0E368012B40F05081594A136823F056
:10062800F803216943EAC1031360236813F0080F34
:1006380042D063696BB3534B0122C3F8802E00F09C
:100648008BFC05464E4B5B6F13F0020F34D100F064
:1006580083FC401B0228F5D9032031E1484A13687E
:1006680023F0F803216943EAC1031360DDE7454B32
:1006780000221A6000F070FC0546414B1B6813F01D
:10068800020FD2D000F068FC401B0228F5D90320E5
:1006980016E13C4B0022C3F8802E00F05DFC0546B5
:1006A800374B5B6F13F0020F06D000F055FC401B70
:1006B8000228F5D9032003E1236813F0040F77D04B
:1006C8002F4B1B6C13F0805F33D1002301932C4B0D
:1006D8001A6C42F080521A641B6C03F08053019329
:1006E800019B0125284B1B6813F4807F23D0A36846
:1006F800012B34D0052B38D0214B1A6F22F0010280
:100708001A671A6F22F004021A67A368002B3DD0FB
:1007180000F022FC06461A4B1B6F13F0020F46D15D
:1007280000F01AFC801B41F288339842F3D9032069
:10073800C6E00025D6E7144A136843F480731360B3
:1007480000F00AFC0646104B1B6813F4807FCED1DC
:1007580000F002FC801B0228F5D90320B0E0084A0B
:10076800136F43F001031367CFE7054B1A6F42F08D
:1007780004021A671A6F42F001021A67C5E700BF40
:1007880000380240000047420070004000F0E4FBDF
:100798000646524B1B6F13F0020F08D000F0DCFB2B
:1007A800801B41F288339842F3D9032088E0EDB9E1
:1007B800A369002B00F08380484A926802F00C027B
:1007C800082A51D0022B17D0454B00221A6600F098
:1007D800C3FB0446414B1B6813F0007F42D000F076
:1007E800BBFB001B0228F5D9032069E03B4A136CC8
:1007F80023F080531364DBE7394B00221A6600F0BC
:10080800ABFB0546354B1B6813F0007F06D000F0A4
:10081800A3FB401B0228F5D9032051E0E369226AB3
:100828001343626A43EA8213A26A5208013A43EA0E
:100838000243E26A43EA0263284A5360284B0122D2
:100848001A6600F089FB0446244B1B6813F0007FEE
:1008580006D100F081FB001B0228F5D903202FE008
:1008680000202DE000202BE0012B2BD01B4B5B68D8
:1008780003F48001E269914226D103F03F02216A24
:100888008A4223D1616A47F6C0721A40B2EB811FCF
:100898001ED103F44031A26A5208013AB1EB024F6B
:1008A80018D103F07063E26AB3EB026F14D1002031
:1008B80006E001207047012002E0012000E000204E
:1008C80002B070BD0120FBE70120F9E70120F7E73E
:1008D8000120F5E70120F3E70120F1E700380240A5
:1008E8000000474208B5264B9B6803F00C03042B15
:1008F80041D0082B41D1224B5A6802F03F025B6875
:1009080013F4800F12D01E4B5968C1F388111D488B
:100918000023A1FB0001FFF73BFC194B5B68C3F305
:10092800014301335B00B0FBF3F008BD144B58687A
:10093800C0F388104FEA401CBCEB000C6EEB0E0EA7
:100948004FEA8E1343EA9C634FEA8C11B1EB0C011A
:1009580063EB0E03DB0043EA5173C90011EB000C93
:1009680043F10003990200234FEA8C2041EA9C518D
:10097800FFF70EFCD1E70348D7E70348D5E700BFE8
:100988000038024040787D010024F400002800F07F
:100998009B8070B50D4604464F4B1B6803F0070358
:1009A8008B4208D2CBB24C4A1370136803F007038A
:1009B8008B4240F08B80236813F0020F17D013F09E
:1009C800040F04D0454A936843F4E05393602368C6
:1009D80013F0080F04D0414A936843F460439360CE
:1009E8003E4A936823F0F003A1680B4393602368A1
:1009F80013F0010F32D06368012B21D09A1E012A0F
:100A080025D9364A126812F0020F61D033498A6834
:100A180022F0030213438B6000F09EFA06462F4B28
:100A28009B6803F00C036268B3EB820F16D000F0EA
:100A380093FA801B41F288339842F0D9032042E0B0
:100A4800264A126812F4003FE0D101203BE0234A15
:100A5800126812F0007FD9D1012034E01E4B1B68C8
:100A680003F00703AB4207D9EAB21B4B1A701B68A5
:100A780003F00703AB422DD1236813F0040F06D00F
:100A8800164A936823F4E053E1680B4393602368A4
:100A980013F0080F07D0114A936823F460432169C3
:100AA80043EAC1039360FFF71DFF0C4B9B68C3F338
:100AB80003130B4AD35CD8400A4B18600A4B1868DA
:100AC80000F0FEF9002070BD012070470120FAE710
:100AD8000120F8E70120F6E7003C02400038024018
:100AE8003C1900080800002004000020014B186889
:100AF800704700BF0800002008B5FFF7F7FF044B58
:100B08009B68C3F38223034AD35CD84008BD00BF67
:100B1800003802403419000808B5FFF7E7FF044B16
:100B28009B68C3F34233034AD35CD84008BD00BF77
:100B3800003802403419000800230F2B00F2D78038
:100B480070B582B065E085684FEA430E032404FA65
:100B58000EF425EA0405CC6804FA0EF42C438460EC
:100B6800446824EA02044A68C2F300129A40224305
:100B780042605CE0DC08083450F8242003F00705E4
:100B8800AD004FF00F0E0EFA05FE22EA0E0E0A69AE
:100B9800AA4042EA0E0240F824205CE0042200E069
:100BA800002202FA0EF22A430234514D45F824205D
:100BB800504A94686FEA0C0224EA0C054E6816F451
:100BC800801F01D04CEA04054A4CA560E46802EA9B
:100BD80004054E6816F4001F01D04CEA0405454C84
:100BE800E560646802EA04054E6816F4003F01D027
:100BF8004CEA04053F4C6560246822404D6815F4B2
:100C0800803F01D04CEA04023A4C226001330F2B9A
:100C18006BD801229A400C6804EA020C32EA0404F8
:100C2800F4D14C6804F00304013C012C8BD94A68C8
:100C380002F00302032A09D0C4685D000322AA4017
:100C480024EA02048A68AA402243C2604A6802F081
:100C58000302022A8ED004684FEA430E032202FAE6
:100C68000EF224EA02044A6802F0030202FA0EF2C3
:100C7800224302604A6812F4403FC7D00022019222
:100C88001D4A546C44F480445464526C02F480420B
:100C98000192019A9C08A51C154A52F8255003F0A8
:100CA800030E4FEA8E0E0F2202FA0EF225EA020513
:100CB800124A90423FF474AF02F5806290420ED01F
:100CC80002F5806290420CD002F5806290420AD010
:100CD80002F5806290423FF461AF072261E701228A
:100CE8005FE702225DE703225BE702B070BD704751
:100CF80000380140003C014000380240000002403A
:100D08000AB18161704709048161704770B5044672
:100D1800866D00F021F994F83530DBB2022B06D04D
:100D280080236365002384F83430012070BD0546B4
:100D38002268136823F0160313602268536923F0AE
:100D480080035361236CE3B12268136823F008031E
:100D580013602268136823F00103136023681B687B
:100D680013F0010F11D000F0F7F8431B052BF5D94C
:100D780020236365032084F83500002384F8343089
:100D8800D4E7A36C002BDFD1E3E7E26D3F23934068
:100D9800B360012384F83530002084F83400C5E7B7
:100DA80090F83530DBB2022B03D080234365012055
:100DB8007047052380F835300268136823F0010373
:100DC8001360002070470000002807DB00F01F02B6
:100DD800400901239340024A42F82030704700BF7F
:100DE80000E100E0002808DB0901C9B200F1604019
:100DF80000F5614080F80013704700F00F0009010A
:100E0800C9B2014B1954704714ED00E000B500F069
:100E18000700C0F1070CBCF1040F28BF4FF0040C09
:100E2800031D062B0FD9C31E4FF0FF3E0EFA0CF020
:100E380021EA000199400EFA03FE22EA0E0241EA75
:100E480002005DF804FB0023EEE70000074AD368C0
:100E580023F4E0631B041B0C000200F4E06003436E
:100E680043F0BF6343F40033D360704700ED00E004
:100E780010B50446054BD868C0F30220FFF7C6FF3B
:100E880001462046FFF7AEFF10BD00BF00ED00E0B1
:100E980008B5FFF799FF08BD0138B0F1807F0BD284
:100EA8004FF0E0235861054AF02182F82310002012
:100EB800986107221A6170470120704700ED00E031
:100EC80010B504460E4B1A784FF47A73B3FBF2F35D
:100ED8000C4A1068B0FBF3F0FFF7DEFF68B90F2C7F
:100EE80001D901200AE0002221464FF0FF30FFF728
:100EF800BFFF054B1C60002000E0012010BD00BFB3
:100F080000000020080000200400002008B50B4B5A
:100F18001A6842F400721A601A6842F480621A6011
:100F28001A6842F480721A600320FFF78FFF0F20BF
:100F3800FFF7C6FFFFF77EFA002008BD003C02401D
:100F4800034A1168034B1B780B441360704700BFBA
:100F58007000002000000020014B1868704700BF97
:100F68007000002038B50446FFF7F6FF0546B4F1D7
:100F7800FF3F02D0044B1B781C44FFF7EDFF401BDA
:100F8800A042FAD338BD00BF00000020034AD2F8BF
:100F9800883043F47003C2F88830704700ED00E0F1
:100FA800026802F10C0353E8003F23F490730C32FB
:100FB80042E800310029F3D1026802F1140353E832
:100FC800003F23F00103143242E800310029F3D135
:100FD800036B012B05D0202380F8423000230363E4
:100FE8007047026802F10C0353E8003F23F0100336
:100FF8000C3242E800310029F3D1ECE790F8413097
:10100800DBB2212B01D0022070478368B3F5805FE3
:1010180017D0036A5A1C02621A7803685A60C38C94
:101028009BB2013B9BB2C3844BB90268D36823F0DF
:101038008003D3600268D36843F04003D360002084
:1010480070470369002BE4D1036A1B880268C3F365
:1010580008035360036A02330362E0E710B50446ED
:101068000268136923F44053C1680B431361836812
:1010780002691A4343691A43C3691A430168CB6872
:1010880023F4164323F00C031343CB60026853691F
:1010980023F4407381690B4353610368314A9342D7
:1010A80006D002F58062934202D0FFF725FD01E0E9
:1010B800FFF732FDE369B3F5004F29D0002103188B
:1010C80049411B1841F10001C90041EA5371DB0095
:1010D800181863684FEA83024FEA937341F10001DD
:1010E800FFF756F8204AA2FB00314909642303FBA5
:1010F80011031B013233A2FB03235B0903F0F00247
:1011080002EB011203F00F03216813448B6010BD3A
:101118000023021843EB0301121841F10001C90032
:1011280041EA5271D200101841F100016268921828
:101138005B41FFF72DF80C4AA2FB003149096423F3
:1011480003FB1103DB003233A2FB03235B095A00C4
:1011580002F4F87202EB011203F00703216813444A
:101168008B60D4E7001001401F85EB5160B310B5C8
:10117800044690F8413013B3242384F841302268A0
:10118800D36823F40053D3602046FFF767FF226833
:10119800136923F4904313612268536923F02A03E7
:1011A80053612268D36843F40053D360002060641D
:1011B800202384F8413084F84230606310BD80F801
:1011C8004030FFF753F9D7E70120704790F84130D6
:1011D800DBB2202B10D189B192B101628284C28422
:1011E80000234364212280F841200168CA6842F044
:1011F8008002CA6018467047022070470120704775
:1012080001207047704708B50168CA6822F040029B
:10121800CA60202280F84120FFF7F4FF002008BDB3
:101228007047704708B5806B0023C385C384FFF7F8
:10123800F8FF08BD704790F84230DBB2222B69D125
:101248008368B3F5805F4FD0826AB3F5805F04D0BE
:10125800002B56D10369002B53D103685B681370C8
:10126800836A01338362C38D9BB2013B9BB2C38502
:10127800002B51D100B583B00268D36823F0200356
:10128800D3600268D36823F48073D360026853691B
:1012980023F001035361202380F842300023436385
:1012A800036B012B33D100230363026802F10C03A3
:1012B80053E8003F23F010030C3242E800310029C4
:1012C800F3D103681A6812F0100F06D000220192B9
:1012D8001A6801925B680193019B818DFFF7AAFF51
:1012E800002003B05DF804FB0269002AACD1826AD1
:1012F80003685B68C3F308031380836A023383625D
:10130800B1E703685B6803F07F031370A8E7FFF792
:1013180087FFE5E7022070470020704710B582B0CC
:10132800044602681368D068516913F00F0F09D199
:1013380013F0200F0CD010F0200F09D02046FFF733
:101348007AFF16E011F0010115D110F4907F12D147
:10135800216B012979D013F0800F03D010F0800F92
:1013680040F0148113F0400F03D010F0400F40F00C
:10137800118102B010BD13F0010F06D010F4807F68
:1013880003D0626C42F00102626413F0040F04D0CF
:1013980019B1626C42F00202626413F0020F04D0C9
:1013A80019B1626C42F00402626413F0080F07D0AE
:1013B80010F0200F00D119B1626C42F0080262648B
:1013C800626C002AD5D013F0200F02D010F0200F45
:1013D80029D123685B6903F04003626C12F0080F9F
:1013E80000D163B32046FFF7DBFD23685B6913F088
:1013F800400F20D0226802F1140353E8003F23F085
:101408004003143242E800310029F3D1E36B73B191
:10141800624A1A65E06BFFF7C3FC0028A9D0E06BAD
:10142800036D9847A5E72046FFF705FFD1E720465B
:10143800FFF7F7FE9DE72046FFF7F3FE99E7204602
:10144800FFF7EFFE0023636493E713F0100F82D0D9
:1014580010F0100F3FF47FAF00230193136801933E
:1014680053680193019B536913F0400F52D0E26B0C
:1014780013685B689BB2002B3FF47BAFA18D994248
:101488007FF677AFE385D369B3F5807F37D02268DD
:1014980002F10C0353E8003F23F480730C3242E856
:1014A80000310029F3D1226802F1140353E8003F08
:1014B80023F00103143242E800310029F3D12268F5
:1014C80002F1140353E8003F23F04003143242E8CA
:1014D80000310029F3D1202384F84230002323630C
:1014E800226802F10C0353E8003F23F010030C328A
:1014F80042E800310029F3D1E06BFFF707FC022333
:101508006363A18DE38D9BB2C91A89B22046FFF7A8
:1015180091FE2EE7A18DE38D9BB2C91A89B2E38DA6
:101528009BB2002B3FF425AF00293FF422AF22687D
:1015380002F10C0353E8003F23F490730C3242E8A5
:1015480000300028F3D1226802F1140353E8003F69
:1015580023F00103143242E800300028F3D120239D
:1015680084F8423000232363226802F10C0353E815
:10157800003F23F010030C3242E800300028F3D17A
:10158800022363632046FFF755FEF2E62046FFF785
:1015980035FDEEE62046FFF736FEEAE62D12000896
:1015A800DFF834D0FFF7F2FC0C480D490D4A002350
:1015B80002E0D458C4500433C4188C42F9D30A4A00
:1015C8000A4C002301E013600432A242FBD300F06E
:1015D80011F8FEF7EBFE7047000002200000002023
:1015E8000C0000205C1900080C000020740000208A
:1015F800FEE7000070B50D4D0D4C641BA4100026CD
:10160800A64209D10B4D0C4C00F07EF9641BA410C6
:101618000026A64205D170BD55F8043B984701360F
:10162800EEE755F8043B98470136F2E754190008ED
:1016380054190008541900085819000802440346B0
:10164800934200D1704703F8011BF9E72DE9F047F1
:10165800089D0E4604460F46002B4AD194468C45F9
:10166800B2FA82F260D942B1C2F12003974020FA5F
:1016780003F30CFA02FC1F4394404FEA1C4E1FFA76
:101688008CF6B7FBFEF1230C0EFB117743EA0743F8
:1016980001FB06F098420AD91CEB030301F1FF375E
:1016A80080F01581984240F21281023963441B1A76
:1016B800A4B2B3FBFEF00EFB103344EA034400FB74
:1016C80006F6A6420AD91CEB040400F1FF3380F0A9
:1016D8000081A64240F2FD806444023840EA01409D
:1016E800A41B00211DB1D4400023C5E90043BDE877
:1016F800F0878B4205D90DB1C5E9000100210846E4
:10170800F5E7B3FA83F1002946D1B34202D3824206
:1017180000F2F580841A66EB030201201746002DBB
:10172800E5D0C5E90047E2E7002A40F09380A1EB45
:101738000C034FEA1C471FFA8CFE0121B3FBF7F696
:1017480007FB1630230C43EA00430EFB06F09842D1
:1017580008D91CEB030306F1FF3802D2984200F2C5
:10176800D08046461B1AA4B2B3FBF7F007FB103330
:1017780044EA03440EFB00FEA64508D91CEB04040A
:1017880000F1FF3302D2A64500F2B6801846A4EB5A
:101798000E0440EA0640A5E7C1F120078B4022FA73
:1017A80007FC4CEA030C06FA01FE20FA07F426FAB5
:1017B80007F344EA0E0400FA01F84FEA1C404FEA26
:1017C8001449B3FBF0FE1FFA8CF600FB1E3349EAFE
:1017D80003430EFB06F9994502FA01F20BD91CEBFB
:1017E80003030EF1FF3A80F08580994540F282802C
:1017F800AEF1020E6344A3EB0909A4B2B9FBF0F3FE
:1018080000FB139944EA094403FB06F6A64208D9EB
:101818001CEB040403F1FF3068D2A64266D9023BF0
:10182800644443EA0E40A41BA0FB02E6B44273469C
:10183800B14652D34FD05DB1B8EB030264EB090453
:1018480004FA07F722FA01F31F43CC40C5E90074F4
:1018580000214CE7C2F1200120FA01F30CFA02FC46
:1018680026FA01F1964033434FEA1C471FFA8CFED3
:10187800B1FBF7F007FB1016190C41EA064100FB13
:101888000EF68E4204FA02F408D91CEB010100F1AD
:10189800FF382DD28E422BD902386144891B9BB266
:1018A800B1FBF7F607FB161143EA014306FB0EF1FD
:1018B800994208D91CEB030306F1FF3814D2994268
:1018C80012D9023E63445B1A46EA004136E73946BC
:1018D800EDE6184602E7F045ADD2BEEB020366EB33
:1018E8000C060138B146A6E74646ECE7034698E7FA
:1018F8004046D3E7D6467EE76444023847E70846C1
:101908000DE7023E63442DE7F8B500BFF8BC08BCFC
:101918009E467047F8B500BFF8BC08BC9E467047A5
:1019280074657374207072696E740A000000000098
:10193800010203040000000000000000010203048B
:04194800060708097D
:08194C0008FDFF7F010000000F
:041954003502000850
:041958000D02000874
:0C195C0001000000100000000024F40056
:04000005080015A931
:00000001FF
