:020000040800F2
:1000000000000220053F00086D0C00086F0C00087E
:10001000710C0008730C0008750C0008000000004B
:10002000000000000000000000000000770C000845
:10003000790C0008000000007B0C00087D0C000813
:10004000553F0008553F0008553F0008553F000840
:10005000553F0008553F0008553F0008553F000830
:10006000553F0008553F0008553F0008553F000820
:10007000553F0008553F0008553F0008553F000810
:10008000553F0008553F0008553F0008000000009C
:10009000000000000000000000000000553F0008C4
:1000A000553F0008553F0008553F0008553F0008E0
:1000B000553F0008553F0008553F0008850C0008D3
:1000C000553F0008553F0008553F0008553F0008C0
:1000D000553F0008950C0008553F0008000000003F
:1000E000553F0008553F0008553F0008000000003C
:1000F000000000000000000000000000553F000864
:1001000000000000553F0008553F0008553F00081B
:1001100000000000000000000000000000000000DF
:10012000553F0008553F0008553F0008553F00085F
:10013000553F000800000000000000000000000023
:10014000000000000000000000000000553F000813
:10015000553F0008553F0008553F0008553F00082F
:10016000553F0008553F0008000000000000000057
:10017000000000000000000000000000000000007F
:1001800000000000553F00080000000000000000D3
:08019000553F0008553F00082F
:1001980081F0004102E000BF83F0004330B54FEA30
:1001A80041044FEA430594EA050F08BF90EA020F9D
:1001B8001FBF54EA000C55EA020C7FEA645C7FEA30
:1001C800655C00F0E2804FEA5454D4EB5555B8BF53
:1001D8006D420CDD2C4480EA020281EA030382EAC4
:1001E800000083EA010180EA020281EA0303362D56
:1001F80088BF30BD11F0004F4FEA01314FF4801C29
:100208004CEA113102D0404261EB410113F0004F3A
:100218004FEA03334CEA133302D0524263EB4303F1
:1002280094EA050F00F0A780A4F10104D5F1200E8F
:100238000DDB02FA0EFC22FA05F2801841F10001EA
:1002480003FA0EF2801843FA05F359410EE0A5F1BE
:1002580020050EF1200E012A03FA0EFC28BF4CF0EF
:10026800020C43FA05F3C01851EBE37101F00045A5
:1002780007D54FF0000EDCF1000C7EEB00006EEBB2
:100288000101B1F5801F1BD3B1F5001F0CD349083C
:100298005FEA30004FEA3C0C04F101044FEA445293
:1002A80012F5800F80F09A80BCF1004F08BF5FEA1A
:1002B800500C50F1000041EB045141EA050130BDFA
:1002C8005FEA4C0C404141EB0101013C28BFB1F50C
:1002D800801FE9D291F0000F04BF01460020B1FA57
:1002E80081F308BF2033A3F10B03B3F120020CDA2A
:1002F8000C3208DD02F1140CC2F10C0201FA0CF008
:1003080021FA02F10CE002F11402D8BFC2F1200C6C
:1003180001FA02F120FA0CFCDCBF41EA0C01904022
:10032800E41AA2BF01EB0451294330BD6FEA04046B
:100338001F3C1CDA0C340EDC04F11404C4F1200256
:1003480020FA04F001FA02F340EA030021FA04F368
:1003580045EA030130BDC4F10C04C4F1200220FABF
:1003680002F001FA04F340EA0300294630BD21FAFD
:1003780004F0294630BD94F0000F83F4801306BFC3
:1003880081F480110134013D4EE77FEA645C18BFB7
:100398007FEA655C29D094EA050F08BF90EA020F4E
:1003A80005D054EA000C04BF1946104630BD91EA46
:1003B800030F1EBF0021002030BD5FEA545C05D149
:1003C8004000494128BF41F0004130BD14F5800488
:1003D8003CBF01F5801130BD01F0004545F0FE41FC
:1003E80041F470014FF0000030BD7FEA645C1ABF31
:1003F800194610467FEA655C1CBF0B46024650EA68
:10040800013406BF52EA033591EA030F41F4002193
:1004180030BD00BF90F0000F04BF0021704730B519
:100428004FF4806404F132044FF000054FF00001EE
:1004380050E700BF90F0000F04BF0021704730B5AF
:100448004FF4806404F1320410F0004548BF404284
:100458004FF000013EE700BF42004FEAE2014FEAD9
:1004680031014FEA02701FBF12F07F4393F07F4FB4
:1004780081F06051704732F07F4208BF704793F0B7
:100488007F4F04BF41F40021704730B54FF46074CA
:1004980001F0004521F000411CE700BF50EA0102CD
:1004A80008BF704730B54FF000050AE050EA010276
:1004B80008BF704730B511F0004502D5404261EBE6
:1004C80041014FF4806404F132045FEA915C3FF427
:1004D800D8AE4FF003025FEADC0C18BF03325FEAC4
:1004E800DC0C18BF033202EBDC02C2F1200300FA75
:1004F80003FC20FA02F001FA03FE40EA0E0021FA9A
:1005080002F11444BDE600BF70B54FF0FF0C4CF487
:10051800E06C1CEA11541DBF1CEA135594EA0C0F39
:1005280095EA0C0F00F0DEF82C4481EA030621EA74
:100538004C5123EA4C5350EA013518BF52EA0335AF
:1005480041F4801143F4801338D0A0FB02CE4FF061
:100558000005E1FB02E506F00042E0FB03E54FF091
:100568000006E1FB03569CF0000F18BF4EF0010E89
:10057800A4F1FF04B6F5007F64F5407404D25FEA85
:100588004E0E6D4146EB060642EAC62141EA555138
:100598004FEAC52040EA5E504FEACE2EB4F1FD0C7A
:1005A80088BFBCF5E06F1ED8BEF1004F08BF5FEAF8
:1005B800500E50F1000041EB045170BD06F00046AA
:1005C80046EA010140EA020081EA0301B4EB5C0457
:1005D800C2BFD4EB0C0541EA045170BD41F480114F
:1005E8004FF0000E013C00F3AB8014F1360FDEBF74
:1005F800002001F0004170BDC4F10004203C35DA50
:100608000C341BDC04F11404C4F1200500FA05F3D2
:1006180020FA04F001FA05F240EA020001F0004273
:1006280021F0004110EBD37021FA04F642EB0601E9
:100638005EEA430E08BF20EAD37070BDC4F10C0413
:10064800C4F1200500FA04F320FA05F001FA04F2D7
:1006580040EA020001F0004110EBD37041F10001C3
:100668005EEA430E08BF20EAD37070BDC4F12005CE
:1006780000FA05F24EEA020E20FA04F301FA05F236
:1006880043EA020321FA04F001F0004121FA04F2DE
:1006980020EA020000EBD3705EEA430E08BF20EAAE
:1006A800D37070BD94F0000F0FD101F000464000E8
:1006B80041EB010111F4801F08BF013CF7D041EA6A
:1006C800060195F0000F18BF704703F0004652006E
:1006D80043EB030313F4801F08BF013DF7D043EA3F
:1006E8000603704794EA0C0F0CEA135518BF95EAF5
:1006F8000C0F0CD050EA410618BF52EA4306D1D17C
:1007080081EA030101F000414FF0000070BD50EA9A
:10071800410606BF1046194652EA430619D094EA24
:100728000C0F02D150EA013613D195EA0C0F05D10E
:1007380052EA03361CBF104619460AD181EA030162
:1007480001F0004141F0FE4141F470014FF000001A
:1007580070BD41F0FE4141F4780170BD70B54FF0B5
:10076800FF0C4CF4E06C1CEA11541DBF1CEA135535
:1007780094EA0C0F95EA0C0F00F0A7F8A4EB050417
:1007880081EA030E52EA03354FEA013100F088800E
:100798004FEA03334FF0805545EA131343EA1263D7
:1007A8004FEA022245EA111545EA10654FEA00268C
:1007B8000EF000419D4208BF964244F1FD0404F545
:1007C800407402D25B084FEA3202B61A65EB0305A1
:1007D8005B084FEA32024FF480104FF4002CB6EB5E
:1007E800020E75EB030E22BFB61A754640EA0C00DE
:1007F8005B084FEA3202B6EB020E75EB030E22BF1E
:10080800B61A754640EA5C005B084FEA3202B6EB5E
:10081800020E75EB030E22BFB61A754640EA9C001D
:100828005B084FEA3202B6EB020E75EB030E22BFED
:10083800B61A754640EADC0055EA060E18D04FEAAB
:10084800051545EA16754FEA06164FEAC30343EA4B
:1008580052734FEAC2025FEA1C1CC0D111F4801F18
:100868000BD141EA00014FF000004FF0004CB6E711
:1008780011F4801F04BF01430020B4F1FD0C88BFB0
:10088800BCF5E06F3FF6AFAEB5EB030C04BFB6EBBB
:10089800020C5FEA500C50F1000041EB045170BDAE
:1008A8000EF0004E4EEA113114EB5C04C2BFD4EBDB
:1008B8000C0541EA045170BD41F480114FF0000E5F
:1008C800013C90E645EA060E8DE60CEA135594EADB
:1008D8000C0F08BF95EA0C0F3FF43BAF94EA0C0FDE
:1008E8000AD150EA01347FF434AF95EA0C0F7FF453
:1008F80025AF104619462CE795EA0C0F06D152EAA7
:1009080003353FF4FDAE1046194622E750EA41068A
:1009180018BF52EA43067FF4C5AE50EA41047FF49B
:100928000DAF52EA43057FF4EBAE12E74FF0FF3C00
:1009380006E000BF4FF0010C02E000BF4FF0010CD1
:100948004DF804CD4FEA410C7FEA6C5C4FEA430C4A
:1009580018BF7FEA6C5C1BD001B050EA410C0CBF99
:1009680052EA430C91EA030F02BF90EA020F0020FB
:10097800704710F1000F91EA030F58BF994208BF62
:1009880090422CBFD8176FEAE37040F0010070471F
:100998004FEA410C7FEA6C5C02D150EA013C07D176
:1009A8004FEA430C7FEA6C5CD6D152EA033CD3D0C1
:1009B8005DF8040B704700BF8446104662468C46BB
:1009C8001946634600E000BF01B5FFF7B7FF0028EE
:1009D80048BF10F1000F01BD4DF808EDFFF7F4FF17
:1009E8000CBF012000205DF808FB00BF4DF808EDA2
:1009F800FFF7EAFF34BF012000205DF808FB00BFC5
:100A08004DF808EDFFF7E0FF94BF012000205DF8E6
:100A180008FB00BF4DF808EDFFF7CEFF94BF01209B
:100A280000205DF808FB00BF4DF808EDFFF7C4FF94
:100A380034BF012000205DF808FB00BF4FEA410CDD
:100A48007FEA6C5C02D150EA013C0AD14FEA430CC0
:100A58007FEA6C5C02D152EA033C02D14FF00000FD
:100A680070474FF00100704753B94AB9002908BFD1
:100A780000281CBF4FF0FF314FF0FF3000F00CB8DA
:100A8800ADF1080C6DE904CE03F046FEDDF804E094
:100A9800DDE9022304B07047704700BF0348044BE8
:100AA800834202D0034B03B118477047F00000207F
:100AB800F0000020000000000548064B1B1AD90F63
:100AC80001EBA301491002D0034B03B1184770474B
:100AD800F0000020F00000200000000010B5064CD7
:100AE800237843B9FFF7DAFF044B13B10448AFF397
:100AF80000800123237010BDF000002000000000DA
:100B0800DC49000808B5054B1BB105490548AFF39A
:100B18000080BDE80840FFF7CFBF00BF000000001D
:100B2800F4000020DC49000872B6FEE700B595B075
:100B38003022002108A803F035FA00230393049318
:100B480005930693079301931F4A116C41F0805156
:100B58001164126C02F080520192019A02931B4BAD
:100B68001A6842F440421A601B6803F44043029337
:100B7800029B012308934FF48033099302230E93B9
:100B88004FF480020F920C2210926022119212935D
:100B98000423139308A800F09DF888B90F23039342
:100BA80002230493002305934FF48052069207937F
:100BB800032103A800F0DEFA20B915B05DF804FBA4
:100BC800FFF7B2FFFFF7B0FF0038024000700040A7
:100BD80000B583B01E4B1B68ADF804301B0C8DF8B4
:100BE800063000F089FDFFF7A1FF02F0C9FD02F011
:100BF8006FFE02F00FFE174802F0C4FE0128FAD07B
:100C0800154D2946134803F013F8144C01224FF4EC
:100C18000051204600F068FC40F2B63000F098FD24
:100C2800B5F924308DF80530C3F303238DF804306B
:100C380000224FF40051204600F056FC322000F00C
:100C480087FD032201A9064800F0B6FED8E700BFD9
:100C5800F84900086C01002010010020000802403B
:100C6800C0010020FEE7FEE7FEE7FEE7FEE770476B
:100C78007047704708B500F059FD08BD08B502482F
:100C880002F0AEFC08BD00BF6C01002008B50248A8
:100C980000F03AFF08BD00BFC001002082B000216B
:100CA80000910B4B5A6C42F480425A645A6C02F41D
:100CB80080420092009A01911A6C42F080521A64A4
:100CC8001B6C03F080530193019B02B0704700BF77
:100CD80000380240002800F0E08170B582B0044678
:100CE800036813F0010F3BD09F4B9B6803F00C0384
:100CF800042B2CD09C4B9B6803F00C03082B21D0B1
:100D08006368B3F5803F4FD0B3F5A02F52D0964B10
:100D18001A6822F480321A601A6822F480221A6053
:100D28006368002B50D000F00DFD05468E4B1B6804
:100D380013F4003F14D100F005FD401B6428F5D9D9
:100D48000320B1E1884B5B6813F4800FD8D0864B41
:100D58001B6813F4003F03D06368002B00F09F81E9
:100D6800236813F0020F54D07F4B9B6813F00C0FCD
:100D78003ED07D4B9B6803F00C03082B33D0E3680F
:100D8800002B68D0794B01221A6000F0DBFC054685
:100D9800754B1B6813F0020F54D100F0D3FC401BB5
:100DA8000228F5D903207FE16F4A136843F48033A2
:100DB8001360B5E76C4B1A6842F480221A601A680F
:100DC80042F480321A60ABE700F0BCFC0546664B83
:100DD8001B6813F4003FC3D000F0B4FC401B642828
:100DE800F5D9032060E1604B5B6813F4800FC6D12E
:100DF8005D4B1B6813F0020F03D0E368012B40F032
:100E08005081594A136823F0F803216943EAC10362
:100E18001360236813F0080F42D063696BB3534B18
:100E28000122C3F8802E00F08DFC05464E4B5B6F07
:100E380013F0020F34D100F085FC401B0228F5D9CD
:100E4800032031E1484A136823F0F803216943EA93
:100E5800C1031360DDE7454B00221A6000F072FC05
:100E68000546414B1B6813F0020FD2D000F06AFC14
:100E7800401B0228F5D9032016E13C4B0022C3F899
:100E8800802E00F05FFC0546374B5B6F13F0020FB6
:100E980006D000F057FC401B0228F5D9032003E1D7
:100EA800236813F0040F77D02F4B1B6C13F0805F6F
:100EB80033D1002301932C4B1A6C42F080521A64F0
:100EC8001B6C03F080530193019B0125284B1B6881
:100ED80013F4807F23D0A368012B34D0052B38D09E
:100EE800214B1A6F22F001021A671A6F22F00402CE
:100EF8001A67A368002B3DD000F024FC06461A4B65
:100F08001B6F13F0020F46D100F01CFC801B41F24E
:100F180088339842F3D90320C6E00025D6E7144A5F
:100F2800136843F48073136000F00CFC0646104B02
:100F38001B6813F4807FCED100F004FC801B0228CC
:100F4800F5D90320B0E0084A136F43F00103136793
:100F5800CFE7054B1A6F42F004021A671A6F42F086
:100F680001021A67C5E700BF003802400000474287
:100F78000070004000F0E6FB0646524B1B6F13F072
:100F8800020F08D000F0DEFB801B41F28833984244
:100F9800F3D9032088E0EDB9A369002B00F0838022
:100FA800484A926802F00C02082A51D0022B17D046
:100FB800454B00221A6600F0C5FB0446414B1B68EE
:100FC80013F0007F42D000F0BDFB001B0228F5D9CA
:100FD800032069E03B4A136C23F080531364DBE77A
:100FE800394B00221A6600F0ADFB0546354B1B68ED
:100FF80013F0007F06D000F0A5FB401B0228F5D9AE
:10100800032051E0E369226A1343626A43EA8213C8
:10101800A26A5208013A43EA0243E26A43EA0263D7
:10102800284A5360284B01221A6600F08BFB0446BD
:10103800244B1B6813F0007F06D100F083FB001BD4
:101048000228F5D903202FE000202DE000202BE016
:10105800012B2BD01B4B5B6803F48001E2699142A2
:1010680026D103F03F02216A8A4223D1616A47F6FA
:10107800C0721A40B2EB811F1ED103F44031A26A3C
:101088005208013AB1EB024F18D103F07063E26ADB
:10109800B3EB026F14D1002006E001207047012055
:1010A80002E0012000E0002002B070BD0120FBE753
:1010B8000120F9E70120F7E70120F5E70120F3E730
:1010C8000120F1E7003802400000474208B5264BEE
:1010D8009B6803F00C03042B41D0082B41D1224B11
:1010E8005A6802F03F025B6813F4800F12D01E4B5F
:1010F8005968C1F388111D480023A1FB0001FFF7BF
:10110800B3FC194B5B68C3F3014301335B00B0FBCD
:10111800F3F008BD144B5868C0F388104FEA401C20
:10112800BCEB000C6EEB0E0E4FEA8E1343EA9C6389
:101138004FEA8C11B1EB0C0163EB0E03DB0043EAC1
:101148005173C90011EB000C43F10003990200230D
:101158004FEA8C2041EA9C51FFF786FCD1E703480F
:10116800D7E70348D5E700BF0038024040787D0143
:101178000024F400002800F09B8070B50D4604465A
:101188004F4B1B6803F007038B4208D2CBB24C4A83
:101198001370136803F007038B4240F08B802368B9
:1011A80013F0020F17D013F0040F04D0454A9368C8
:1011B80043F4E0539360236813F0080F04D0414AC6
:1011C800936843F4604393603E4A936823F0F003C6
:1011D800A1680B439360236813F0010F32D0636852
:1011E800012B21D09A1E012A25D9364A126812F0FD
:1011F800020F61D033498A6822F0030213438B60DF
:1012080000F0A0FA06462F4B9B6803F00C036268B7
:10121800B3EB820F16D000F095FA801B41F28833A9
:101228009842F0D9032042E0264A126812F4003F9F
:10123800E0D101203BE0234A126812F0007FD9D1A7
:10124800012034E01E4B1B6803F00703AB4207D9AB
:10125800EAB21B4B1A701B6803F00703AB422DD18F
:10126800236813F0040F06D0164A936823F4E0535A
:10127800E1680B439360236813F0080F07D0114A05
:10128800936823F46043216943EAC1039360FFF73D
:101298001DFF0C4B9B68C3F303130B4AD35CD84068
:1012A8000A4B18600A4B186800F000FA002070BD5D
:1012B800012070470120FAE70120F8E70120F6E74E
:1012C800003C024000380240044A000808000020A0
:1012D80004000020014B1868704700BF0800002078
:1012E80008B5FFF7F7FF044B9B68C3F38223034A53
:1012F800D35CD84008BD00BF00380240FC49000854
:1013080008B5FFF7E7FF044B9B68C3F34233034A72
:10131800D35CD84008BD00BF00380240FC49000833
:1013280000230F2B00F2D78070B582B065E0856886
:101338004FEA430E032404FA0EF425EA0405CC68A8
:1013480004FA0EF42C438460446824EA02044A68D0
:10135800C2F300129A40224342605CE0DC08083481
:1013680050F8242003F00705AD004FF00F0E0EFAD9
:1013780005FE22EA0E0E0A69AA4042EA0E0240F869
:1013880024205CE0042200E0002202FA0EF22A4344
:101398000234514D45F82420504A94686FEA0C02F3
:1013A80024EA0C054E6816F4801F01D04CEA0405A7
:1013B8004A4CA560E46802EA04054E6816F4001F6A
:1013C80001D04CEA0405454CE560646802EA04056E
:1013D8004E6816F4003F01D04CEA04053F4C6560A6
:1013E800246822404D6815F4803F01D04CEA04027D
:1013F8003A4C226001330F2B6BD801229A400C68BB
:1014080004EA020C32EA0404F4D14C6804F0030440
:10141800013C012C8BD94A6802F00302032A09D047
:10142800C4685D000322AA4024EA02048A68AA402C
:101438002243C2604A6802F00302022A8ED004687E
:101448004FEA430E032202FA0EF224EA02044A6823
:1014580002F0030202FA0EF2224302604A6812F412
:10146800403FC7D0002201921D4A546C44F4804486
:101478005464526C02F480420192019A9C08A51CA3
:10148800154A52F8255003F0030E4FEA8E0E0F222C
:1014980002FA0EF225EA0205124A90423FF474AFAE
:1014A80002F5806290420ED002F5806290420CD024
:1014B80002F5806290420AD002F5806290423FF4C1
:1014C80061AF072261E701225FE702225DE703229D
:1014D8005BE702B070BD704700380140003C014036
:1014E80000380240000002400AB1816170470904D7
:1014F8008161704770B50446866D00F023F994F851
:101508003530DBB2022B06D080236365002384F8D4
:101518003430012070BD05462268136823F0160395
:1015280013602268536923F080035361236CE3B18D
:101538002268136823F0080313602268136823F0F5
:101548000103136023681B6813F0010F11D000F02A
:10155800F9F8431B052BF5D920236365032084F88C
:101568003500002384F83430D4E7A36C002BDFD196
:10157800E3E7E26D3F239340B360012384F83530FD
:10158800002084F83400C5E790F83530DBB2022B30
:1015980003D08023436501207047052380F8353048
:1015A8000268136823F0010313600020704790F865
:1015B80035007047002807DB00F01F0240090123AF
:1015C8009340024A42F82030704700BF00E100E033
:1015D800002808DB0901C9B200F1604000F561404C
:1015E80080F80013704700F00F000901C9B2014BE1
:1015F8001954704714ED00E000B500F00700C0F181
:10160800070CBCF1040F28BF4FF0040C031D062B78
:101618000FD9C31E4FF0FF3E0EFA0CF021EA00016D
:1016280099400EFA03FE22EA0E0241EA02005DF832
:1016380004FB0023EEE70000074AD36823F4E063C5
:101648001B041B0C000200F4E060034343F0BF637B
:1016580043F40033D360704700ED00E010B5044652
:10166800054BD868C0F30220FFF7C6FF01462046A5
:10167800FFF7AEFF10BD00BF00ED00E008B5FFF7B3
:1016880099FF08BD0138B0F1807F0BD24FF0E023FD
:101698005861054AF02182F823100020986107223A
:1016A8001A6170470120704700ED00E010B504464C
:1016B8000E4B1A784FF47A73B3FBF2F30C4A1068A6
:1016C800B0FBF3F0FFF7DEFF68B90F2C01D901205A
:1016D8000AE0002221464FF0FF30FFF7BFFF054B1D
:1016E8001C60002000E0012010BD00BF00000020A9
:1016F800080000200400002008B50B4B1A6842F4CB
:1017080000721A601A6842F480621A601A6842F419
:1017180080721A600320FFF78FFF0F20FFF7C6FFC4
:10172800FFF7BCFA002008BD003C0240034A1168DC
:10173800034B1B780B441360704700BF68010020FF
:1017480000000020014B1868704700BF68010020A6
:1017580038B50446FFF7F6FF0546B4F1FF3F02D05F
:10176800044B1B781C44FFF7EDFF401BA042FAD343
:1017780038BD00BF00000020034AD2F8883043F487
:101788007003C2F88830704700ED00E0026802F18B
:101798000C0353E8003F23F490730C3242E8003105
:1017A8000029F3D1026802F1140353E8003F23F043
:1017B8000103143242E800310029F3D1036B012BF5
:1017C80005D0202380F84230002303637047026865
:1017D80002F10C0353E8003F23F010030C3242E8F7
:1017E80000310029F3D1ECE790F84130DBB2212B2E
:1017F80001D0022070478368B3F5805F17D0036A71
:101808005A1C02621A7803685A60C38C9BB2013B67
:101818009BB2C3844BB90268D36823F08003D360BA
:101828000268D36843F04003D3600020704703691F
:10183800002BE4D1036A1B880268C3F308035360D2
:10184800036A02330362E0E710B5044602681369CD
:1018580023F44053C1680B431361836802691A4338
:1018680043691A43C3691A430168CB6823F41643D2
:1018780023F00C031343CB600268536923F44073CD
:1018880081690B4353610368314A934206D002F5DC
:101898008062934202D0FFF723FD01E0FFF730FD9D
:1018A800E369B3F5004F29D00021031849411B18FB
:1018B80041F10001C90041EA5371DB00181863685F
:1018C8004FEA83024FEA937341F10001FFF7CCF826
:1018D800204AA2FB00314909642303FB11031B01C1
:1018E8003233A2FB03235B0903F0F00202EB01127F
:1018F80003F00F03216813448B6010BD0023021806
:1019080043EB0301121841F10001C90041EA527189
:10191800D200101841F10001626892185B41FFF78C
:10192800A3F80C4AA2FB00314909642303FB110305
:10193800DB003233A2FB03235B095A0002F4F8727E
:1019480002EB011203F00703216813448B60D4E70C
:10195800001001401F85EB5160B310B5044690F8A4
:10196800413013B3242384F841302268D36823F428
:101978000053D3602046FFF767FF2268136923F4FA
:10198800904313612268536923F02A035361226844
:10199800D36843F40053D36000206064202384F8A4
:1019A800413084F84230606310BD80F8403001F067
:1019B800A9FFD7E70120704790F84130DBB2202B10
:1019C80010D189B192B101628284C2840023436438
:1019D800212280F841200168CA6842F08002CA606A
:1019E8001846704702207047012070470120704751
:1019F800704708B50168CA6822F04002CA60202210
:101A080080F84120FFF7F4FF002008BD70477047B9
:101A180008B5806B0023C385C384FFF7F8FF08BDB2
:101A2800704790F84230DBB2222B69D18368B3F556
:101A3800805F4FD0826AB3F5805F04D0002B56D107
:101A48000369002B53D103685B681370836A013301
:101A58008362C38D9BB2013B9BB2C385002B51D1DE
:101A680000B583B00268D36823F02003D36002680E
:101A7800D36823F48073D3600268536923F00103A9
:101A88005361202380F8423000234363036B012B0A
:101A980033D100230363026802F10C0353E8003FCB
:101AA80023F010030C3242E800310029F3D1036817
:101AB8001A6812F0100F06D0002201921A680192DB
:101AC8005B680193019B818DFFF7AAFF002003B09B
:101AD8005DF804FB0269002AACD1826A03685B687E
:101AE800C3F308031380836A02338362B1E7036890
:101AF8005B6803F07F031370A8E7FFF787FFE5E74C
:101B0800022070470020704710B582B00446026872
:101B18001368D068516913F00F0F09D113F0200F23
:101B28000CD010F0200F09D02046FFF77AFF16E0FE
:101B380011F0010115D110F4907F12D1216B012908
:101B480079D013F0800F03D010F0800F40F014818B
:101B580013F0400F03D010F0400F40F0118102B095
:101B680010BD13F0010F06D010F4807F03D0626C13
:101B780042F00102626413F0040F04D019B1626CE0
:101B880042F00202626413F0020F04D019B1626CD1
:101B980042F00402626413F0080F07D010F0200F1F
:101BA80000D119B1626C42F008026264626C002ACA
:101BB800D5D013F0200F02D010F0200F29D12368C0
:101BC8005B6903F04003626C12F0080F00D163B345
:101BD8002046FFF7DBFD23685B6913F0400F20D038
:101BE800226802F1140353E8003F23F04003143243
:101BF80042E800310029F3D1E36B73B1624A1A65F8
:101C0800E06BFFF7C1FC0028A9D0E06B036D984793
:101C1800A5E72046FFF705FFD1E72046FFF7F7FEC7
:101C28009DE72046FFF7F3FE99E72046FFF7EFFE12
:101C38000023636493E713F0100F82D010F0100FA5
:101C48003FF47FAF00230193136801935368019316
:101C5800019B536913F0400F52D0E26B13685B6825
:101C68009BB2002B3FF47BAFA18D99427FF677AFF3
:101C7800E385D369B3F5807F37D0226802F10C037E
:101C880053E8003F23F480730C3242E80031002906
:101C9800F3D1226802F1140353E8003F23F0010353
:101CA800143242E800310029F3D1226802F114030A
:101CB80053E8003F23F04003143242E80031002982
:101CC800F3D1202384F8423000232363226802F1F1
:101CD8000C0353E8003F23F010030C3242E80031B4
:101CE8000029F3D1E06BFFF705FC02236363A18DA4
:101CF800E38D9BB2C91A89B22046FFF791FE2EE701
:101D0800A18DE38D9BB2C91A89B2E38D9BB2002BDA
:101D18003FF425AF00293FF422AF226802F10C03FB
:101D280053E8003F23F490730C3242E80030002857
:101D3800F3D1226802F1140353E8003F23F00103B2
:101D4800143242E800300028F3D1202384F84230CE
:101D580000232363226802F10C0353E8003F23F0B9
:101D680010030C3242E800300028F3D102236363E9
:101D78002046FFF755FEF2E62046FFF735FDEEE672
:101D88002046FFF736FEEAE6191A000803685A6982
:101D980012F0800F01D000221A61704790F83E308F
:101DA800DBB2402B10D00369B3F5804F1BD0036D15
:101DB800002B39D1436CC3F3C813026803F0060340
:101DC80043F0F00313617047036D2BB9436C02684D
:101DD80003F0FE0313617047436C026843F001038C
:101DE800DBB21361704790F83D30DBB2212B0FD086
:101DF800436C026843F00103DBB21361436B6BB1C0
:101E0800DB6B5BB10268536843F40063536070474F
:101E1800436C026803F0FE031361EFE7836B33B191
:101E2800DB6B002BEED102E0036D012B00D0704775
:101E3800436CC3F3C813026803F0060343F0F103CD
:101E48001361F4E7436C0268DBB21361436B3BB187
:101E5800DB6B2BB10268536843F40063536070472F
:101E6800836B002BFBD0DB6B002BF3D1F7E7000073
:101E780010B48BB090F83E30DAB2C16A046B90F8B7
:101E88003D30DBB2222B0BD00023099303685A693B
:101E980009929B690993099B0BB05DF8044B704745
:101EA800036D0BB9402A17D0036D1BB90369B3F54D
:101EB800404F19D0438D9BB2002B25D10293036864
:101EC8005A6902929A690292029A1A6842F4007256
:101ED8001A6000230365DFE7009303685A690092DC
:101EE8009B690093009BD7E70023019303685A6915
:101EF80001929A690192019A1A6842F480721A60F2
:101F0800036D01330365C7E7438D9BB2012B26D0D0
:101F1800438D9BB2022B7CD00268136843F4806324
:101F2800136003685A6812F4006F0FD0202900F27A
:101F3800AE800829C0F0A7800839574ACA4012F075
:101F4800010F03D05A6842F480525A600023089364
:101F580003685A6908929B690893089BB9E711F5C9
:101F6800803F11D0082934D0202932D0122C2ED00D
:101F7800042940D002293ED010293CD002681368B9
:101F880023F4806313603BE00268136823F48063E2
:101F9800136003685A6812F4006F0CD01A6822F4B0
:101FA80080621A600023039303685A6903929B694D
:101FB8000393039B8DE7002204925A6904929A695D
:101FC8000492049A1A6842F400721A6081E701299F
:101FD800D0D00268136823F480631360002306934B
:101FE80003685A6906929A690692069A1A6842F430
:101FF80000721A606DE70268136843F48063136027
:102008000023059303685A6905929B690593059B0C
:102018005FE710290AD8214BCB4013F0010F05D0F8
:102028000268136843F48063136009E00268136868
:1020380023F4806313600268136843F40063136039
:1020480003685A6812F4006F0DD0202917D80829A0
:1020580012D30839104ACA4012F0010F03D05A6847
:1020680042F480525A600023079303685A69079222
:102078009B690793079B2CE70129F4D1EFE711F53A
:10208800803FF0D1EBE701297FF460AF5AE711F503
:10209800803F7FF45BAF55E70101000114000100A8
:1020A800438D9BB25BB1426A036812781A61436A36
:1020B80001334362438D9BB2013B9BB2438570471A
:1020C800438D9BB25BB103681A69436A1A70436A0D
:1020D80001334362438D9BB2013B9BB243857047FA
:1020E80082B0002301930E4B1B68DB080D4AA2FB4C
:1020F80003231B0A03EB83030193019B013B019319
:10210800019B33B103681B6813F4007FF5D10020ED
:1021180004E0036C43F020030364012002B070471D
:102128000800002089B5F81403685A6912F4806F12
:1021380001D1002070476FF480625A610023036365
:10214800202280F83D2080F83E30026C42F00402E4
:10215800026480F83C3001207047C36AB3F52A0F47
:1021680004D0C36AB3F12A4F03D070470123C36276
:1021780070470823C362F8E72DE9F04106460C468C
:10218800174698463BE0FFF7DDFA069BC01A404524
:1021980002D8B8F1000F32D1012D18D033689B69ED
:1021A80024EA03039BB2B3FA83F35B099F4226D167
:1021B80000233363202286F83D2086F83E30326CB7
:1021C80042F02002326486F83C30012027E0336870
:1021D8005B6924EA03039BB2B3FA83F35B09E5E77F
:1021E80033685B6924EA030C1FFA8CFCBCFA8CFC8C
:1021F8004FEA5C1C674511D1B8F1FF3FC3D1C4F366
:102208000745012DECD033689B6924EA030C1FFABB
:102218008CFCBCFA8CFC4FEA5C1CEBE70020BDE8A8
:10222800F0812DE9F84305460E469046994653E05D
:102238001A6842F400721A602B686FF480625A615F
:1022480000232B63202285F83D2085F83E302A6C38
:1022580042F004022A6485F83C3001204AE0FFF786
:1022680071FAA0EB0900404502D8B8F1000F33D14C
:10227800012F17D02B689B6926EA03039BB2003B0A
:1022880018BF012343B300232B63202285F83D2088
:1022980085F83E302A6C42F020022A6485F83C30EA
:1022A800012027E02B685B6926EA03039BB2003B09
:1022B80018BF0123E6E72B689C6926EA0404A4B248
:1022C800003C18BF0124A4B12B685A6912F4806F2E
:1022D800AED1B8F1FF3FC2D1C6F30747012FEAD10B
:1022E8002B685C6926EA0404A4B2003C18BF0124E8
:1022F800E9E70020BDE8F88370B504460D461646A8
:1023080023685B6913F0800F21D12046FFF70CFF8B
:10231800F8B9B5F1FF3FF3D0FFF714FA801BA842D4
:1023280001D8002DECD123685B6913F0800FE7D149
:1023380000232363202284F83D2084F83E30226C59
:1023480042F02002226484F83C30012000E00020A2
:1023580070BD0120FCE700002DE9F04385B004467C
:102368000D4691461F46DDF830800D9E03681968BA
:1023780041F4807119600096434600224FF0011124
:10238800FFF7FAFE60B9236805F0FE051D613346C4
:10239800424626492046FFF744FF68B1012008E07D
:1023A80023681B6813F4807F02D04FF40073236402
:1023B800032005B0BDE8F0830023039323685A691E
:1023C80003929B690393039B324641462046FFF7DD
:1023D80093FF30B9012F0FD123685FFA89F61E6188
:1023E800E7E7236C042B01D00120E2E72268136899
:1023F80043F400731360F7E723684FEA19221A6160
:10240800324641462046FFF777FF20B923685FFA36
:1024180089F61E61CDE7236C042B01D00120C8E7A3
:102428002268136843F400731360F7E702000100A1
:102438002DE9F04784B004460D46164699460C9F90
:10244800DDF834800268136843F48063136003681E
:10245800196841F480711960CDF800803B4600226C
:102468004FF00111FFF788FE70B95FFA85FA23680B
:1024780005F0FE051D6143463A4641492046FFF7EF
:10248800D0FE68B1012008E023681B6813F4807F40
:1024980002D04FF400732364032004B0BDE8F08732
:1024A8000023039323685A6903929B690393039B50
:1024B800424639462046FFF71FFF80B9B9F1010FA0
:1024C80018D12368F6B21E61424639462046FFF706
:1024D80013FF68B3236C042B24D00120DDE7236CA1
:1024E800042B01D00120D8E72268136843F4007355
:1024F8001360F7E72368320A1A61424639462046D4
:10250800FFF7FAFE18B92368F6B21E61DCE7236C00
:10251800042B01D00120C0E72268136843F400733C
:102528001360F7E72268136843F400731360D4E775
:102538002268136843F480731360CDF800803B462B
:1025480000224FF001112046FFF716FE68B92268F5
:102558004AF00103136143463A4609492046FFF70A
:1025680060FE002899D0012097E723681B6813F4C0
:10257800807F02D04FF40073236403208DE700BFEF
:102588000200010070B504460D46164623685B69D3
:1025980013F0040F21D12046FFF7C6FDF8B9B5F1B5
:1025A800FF3FF3D0FFF7CEF8801BA84201D8002DDB
:1025B800ECD123685B6913F0040FE7D10023236390
:1025C800202284F83D2084F83E30226C42F020021C
:1025D800226484F83C30012000E0002070BD012016
:1025E800FCE770B504460D46164614E06FF010027D
:1025F8005A6100232363202284F83D2084F83E306A
:10260800226C226484F83C30012025E023685B6951
:1026180013F0400F10D02368586910F0400F1AD1FA
:10262800586910F0100FE1D1FFF78CF8801BA84211
:10263800ECD8002DEFD1E9E700232363202284F8AA
:102648003D2084F83E30226C42F02002226484F857
:102658003C30012000E0002070BD0000002800F0A0
:10266800CC8070B5044690F83D30002B77D02423F9
:1026780084F83D302268136823F001031360226850
:10268800136843F4004313602268136823F400437B
:102698001360FEF725FE62685A4B9A4264D85A4B7B
:1026A80098428CBF00230123002B40F0A880574993
:1026B800A1FB00318B0C25686A6822F03F0242EAD0
:1026C80091426A6021680A6A22F03F0266684D4DAD
:1026D800AE424FD8013313430B622168CA6922F412
:1026E8004F4222F0FF026568464B9D424CD8431E7C
:1026F8006D00B3FBF5F3013340F6FC70034278D06C
:10270800C3F30B031A43CA6121680B6823F0C003A3
:10271800E269206A024313430B6021688B6823F443
:10272800034323F0FF032269E068024313438B60ED
:102738002168CB6823F0FF036269A0690243134351
:10274800CB602268136843F0010313600020206403
:10275800202384F83D30206384F83E0070BD80F863
:102768003C3001F075F882E7294B98428CBF002372
:10277800012399E74FF4967505FB03F3254DA5FB57
:1027880003539B090133A6E7A668BEB9431E05EBB0
:10279800450CB3FBFCF30133C3F30B03B3FA83F328
:1027A8005B0943BBC6B9431E05EB4505B3FBF5F30F
:1027B8000133C3F30B0343F40043A3E7431E05EBC4
:1027C800850C0CEB8C0CB3FBFCF30133C3F30B034C
:1027D800B3FA83F35B09E4E7431E05EB850505EBD4
:1027E8008505B3FBF5F30133C3F30B0343F440430F
:1027F80088E7042386E7012384E701207047012046
:10280800ACE700BFA08601007F841E0083DE1B4367
:10281800FF083D00D34D62102DE9F04383B0044614
:102828000F46904699460C9EFEF78CFF054694F895
:102838003D00C0B2202803D0022003B0BDE8F083D9
:102848000095192301224B492046FFF795FC0028E3
:1028580040F0898094F83C30012B00F086800123F9
:1028680084F83C3023681A6812F0010F03D11A6803
:1028780042F001021A602268136823F400631360AF
:10288800212384F83D30402384F83E30002323641C
:102898000A9B6362BDF82C306385638D2385364BB4
:1028A800E362019500964B46424639462046FFF7BB
:1028B80053FD00285BD1238D002B35D02A463146A5
:1028C8002046FFF719FD20BB626A236812781A6157
:1028D800626A531C6362218D013989B22185638D37
:1028E8009BB2013B9BB263852368586910F0040FC3
:1028F800E1D00029DFD052781A61636A013363623C
:10290800238D013B2385638D9BB2013B9BB263857D
:10291800D1E7236C042B01D001208EE722681368CD
:1029280043F400731360F7E72A4631462046FFF761
:1029380029FE50B1236C042B01D001207DE72268C9
:10294800136843F400731360F7E72268136843F4CD
:1029580000731360202384F83D30002384F83E3050
:1029680084F83C3069E7022067E7022065E7012028
:1029780063E700BF020010000000FFFF2DE9F043ED
:1029880087B004460F4690469946109EFEF7DAFE39
:10299800054694F83D00C0B2202804D002273846E6
:1029A80007B0BDE8F0830095192301228849204625
:1029B800FFF7E2FB002840F04D8194F83C30012BF2
:1029C80000F04A81012384F83C3023681A6812F029
:1029D800010F03D11A6842F001021A6022681368D5
:1029E80023F400631360222384F83D30402384F8E5
:1029F8003E30002323640E9B6362BDF83C30638540
:102A0800638D2385734BE362019500964B464246DE
:102A180039462046FFF70CFD0746002840F01E8186
:102A2800238D5BB9029323685A6902929A690292CC
:102A3800029A1A6842F400721A6075E0012B0AD0F3
:102A4800022B1AD00023059323685A6905929B69C3
:102A58000593059B68E02268136823F4806313607C
:102A68000023039323685A6903929A690392039A8D
:102A78001A6842F400721A6056E02268136823F458
:102A8800806313602268136843F4006313600023B3
:102A9800049323685A6904929B690493049B43E056
:102AA8002A4631462046FFF79CFD002840F0D88092
:102AB80023681A69636A1A70636A01336362238D33
:102AC800013B2385638D9BB2013B9BB263852BE061
:102AD80000953346002240492046FFF74DFB002869
:102AE80040F0C0802268136843F4007313602368C1
:102AF8001A69636A1A70626A531C6362238D013B08
:102B08002385638D9BB2013B9BB2638523681B6958
:102B18005370636A01336362238D013B2385638DA0
:102B28009BB2013B9BB26385238D002B00F089800B
:102B3800032B53D8012BB3D0022BC9D000953346B1
:102B4800002225492046FFF717FB002840F08C801B
:102B58002268136823F48063136023681A69636A20
:102B68001A70636A01336362238D013B2385638D89
:102B78009BB2013B9BB26385009533460022164900
:102B88002046FFF7F9FA002870D12268136843F449
:102B98000073136023681A69636A1A70626A531CA7
:102BA8006362238D013B2385638D9BB2013B9BB2FE
:102BB800638523681B695370636A01336362238DDD
:102BC800013B2385638D9BB2013B9BB26385ABE7D9
:102BD800020010000000FFFF040001002A463146F1
:102BE8002046FFF7FEFC002842D123681A69636A71
:102BF8001A70636A01336362228D013A92B22285A8
:102C0800638D9BB2013B9BB263852368596911F0C0
:102C1800040F89D0032A0FD023681A69636A1A70CF
:102C2800636A01336362238D013B2385638D9BB205
:102C3800013B9BB2638577E71A6822F480621A60C9
:102C4800EAE7202384F83D30002384F83E3084F8F6
:102C58003C30A4E60227A2E60227A0E601279EE66A
:102C680001279CE601279AE6012798E6012796E6C0
:102C7800012794E670477047704708B590F83D30D3
:102C8800DAB2438D9BB283B1416A0368097819614E
:102C9800436A01334362438D9BB2013B9BB2438538
:102CA800438D9BB20BB9292A00D008BD026853682E
:102CB80023F48063536021230363282380F83D3085
:102CC800FFF7DAFFF1E7704708B590F83D30DAB260
:102CD800438D9BB283B103681969436A1970436ACB
:102CE80001334362438D9BB2013B9BB24385438DC5
:102CF8009BB20BB92A2A00D008BD0268536823F496
:102D08008063536022230363282380F83D30FFF754
:102D1800DAFFF1E7704700B583B090F83D3003F073
:102D28002803282B0CD000230193026851690191D4
:102D380092690192019A80F83C3003B05DF804FB77
:102D48000268536823F48063536011F0040F0BD0BA
:102D5800002311F0800F09D18289002180F83C10EE
:102D68001946FFF7D7FFE8E70123F2E7028BF4E7FC
:102D78007047704708B5C26A90F83D30DBB2212B26
:102D880000D008BD438D9BB263B1426A03681278D4
:102D98001A61436A01334362438D9BB2013B9BB284
:102DA8004385EEE7082A04D0202A02D012F5803F96
:102DB80019D10268536823F4E0635360026813680A
:102DC80043F40073136000230363202380F83D302D
:102DD80090F83E30DBB2402B15D0002380F83E300F
:102DE800FFF748FFCDE70268536823F4E0635360B8
:102DF80011230363002380F83E30202380F83D3000
:102E0800FFF738FFBDE7002380F83E30FFF7B1FF3A
:102E1800B7E708B590F83D30026D9AB9C36C012B3D
:102E280008D0836C0268C3F307231361036D013371
:102E3800036508BD836C0268DBB21361036D02335E
:102E48000365F6E7DBB2026D012A23D0026D022A80
:102E58003ED1222B26D0428D92B20AB1212B2AD004
:102E6800428D92B2002AE4D1212BE2D10268536844
:102E780023F4E06353600268136843F4007313603B
:102E880000230363202280F83D2080F83E30FFF7BE
:102E980070FFCEE7836C0268DBB21361036D013308
:102EA8000365C6E70268136843F480731360036D13
:102EB80001330365BDE7426A036812781A61436A01
:102EC80001334362438D9BB2013B9BB24385B0E71C
:102ED800FEF75CFFADE710B590F83D30DBB290F837
:102EE8003E20D2B2C46A018D00293BD1212B02D0E9
:102EF800402A42D010BD082C04D0202C02D014F552
:102F0800803F19D10268536823F4E0635360026874
:102F1800136843F40073136000230363202380F8CD
:102F28003D3090F83E30DBB2402B15D0002380F8BE
:102F38003E30FFF79FFEDDE70268536823F4E06345
:102F4800536011230363002380F83E30202380F868
:102F58003D30FFF78FFECDE7002380F83E30FFF7C6
:102F680008FFC7E7212BC3D1438D9BB243B9026841
:102F7800536823F480635360BCE7222BBAD1F3E78C
:102F880090F83E30DBB2402B0CD0426A03681278CE
:102F98001A61436A01334362438D9BB2013B9BB282
:102FA8004385A7E7FFF735FFA4E7704708B5C26A6E
:102FB800438D9BB2042B14D0438D9BB2032B22D09C
:102FC800438D9BB2022B39D003681A69436A1A7081
:102FD800436A01334362438D9BB2013B9BB24385F5
:102FE80010E00268536823F48063536003681A6929
:102FF800436A1A70436A01334362438D9BB2013BB3
:103008009BB2438508BD01684B6823F480634B601D
:10301800042A06D0022A04D00268136823F48063C5
:10302800136003681A69436A1A70436A013343627A
:10303800438D9BB2013B9BB24385E3E7531E0F2BA5
:1030480042D8DFE803F0083B413B4141414141415F
:1030580041414141410801680B6823F480630B60DA
:1030680003681969436A1970416A4B1C4362438DAE
:103078009BB2013B9BB2438503681B694B70436A53
:1030880001334362438D9BB2013B9BB24385016888
:103098004B6823F440734B60202380F83D3090F850
:1030A8003E30DBB2402B15D0002380F83E30082A92
:1030B80017D0202A15D01223036314E001680B6887
:1030C80043F480630B60CBE701680B6843F400733B
:1030D8000B60C5E7002380F83E300363FFF765FF08
:1030E80090E700230363FFF7C6FD8BE7704738B509
:1030F80090F83D30DBB2222B00D038BD0446C56ABB
:10310800438D9BB2032B15D903681A69436A1A7059
:10311800436A01334362438D9BB2013B9BB24385B3
:10312800438D9BB2032BE8D10268536823F4806374
:103138005360E2E7C26A022A01D0012B05D922684E
:10314800536823F480635360D7E7FEF7C9FF00286C
:1031580035D12268136823F48063136022685368AA
:1031680023F4E063536023681A69636A1A70636A18
:1031780001336362638D9BB2013B9BB2638520235D
:1031880084F83D3094F83E30DBB2402B09D0002360
:1031980084F83E30082D0CD0202D0AD0122323634A
:1031A80009E0002384F83E3023632046FFF7FDFE44
:1031B800A3E7002323632046FFF75DFD9DE7226810
:1031C800536823F4E063536023681A69636A1A70CA
:1031D800636A01336362638D9BB2013B9BB2638573
:1031E800202384F83D30002384F83E302046FFF742
:1031F8007DFF82E77047000000B583B0002301938C
:10320800806B90F83D20D2B2324B1B68DB08324904
:10321800A1FB03131B0A03EB8303C3EBC303019353
:10322800019B43B1019B013B019303681B6813F4A5
:10323800007FF5D103E0036C43F020030364436B84
:103248000BB10021D963836B0BB10021D9630168ED
:103258000B6823F480630B6000234385436B0BB139
:1032680000211965836B0BB10021196501680B6892
:1032780023F001030B6090F83D30DBB2602B0ED0D9
:1032880002F02802282A14D0202380F83D30002399
:1032980080F83E30FFF72AFF03B05DF804FB2023D7
:1032A80080F83D30002380F83E300364FFF7A2FF2A
:1032B800F2E70268136843F00103136002681368B9
:1032C80043F48063136000230363282380F83D30B0
:1032D800E0E700BF0800002089B5F81410B50446DF
:1032E80090F83D30DBB290F83E20D2B2102A36D0AA
:1032F800402A34D003F02802282A38D0226852689D
:1033080012F4006F07D1602B05D0202384F83D30DC
:10331800002384F83E300023236323685A6812F49C
:10332800006F48D05A6822F400625A60626B92F8C3
:103338003530DBB2012B20D0444B1365606BFEF7B0
:1033480023F9002849D02268136823F00103136089
:10335800202384F83D30606B036D98473DE0222BB5
:10336800C8D121680A6822F400620A60C2E7002313
:103378002363282384F83D30CFE7A36B334A1A65CB
:10338800A06BFEF701F940B323685A6912F0400FA9
:1033980005D01A69636A1A70636A01336362226826
:1033A800136823F001031360202384F83D30A06BD9
:1033B800036D984711E094F83D20D2B2602A1FD0DF
:1033C8005A6912F0400F05D01A69636A1A70636A65
:1033D800013363622046FFF789FE236C13F00F0F59
:1033E80004D02268536823F4E063536094F83D30B6
:1033F800DBB2226C12F0040F01D0282B18D010BDBC
:10340800202284F83D20002222645A6912F0400FDD
:1034180005D01A69636A1A70636A013363622268A5
:10342800136823F0010313602046FFF7E3FED4E797
:10343800074BE36200232363202284F83D2084F8AD
:103448003E302046FFF794FCD9E700BF0132000860
:103458000000FFFF30B583B0044690F83D50EDB250
:103468000268536823F4E063536000230193036800
:103478005A6901921A6842F001021A60019B0268B7
:10348800136823F48063136003685A6812F4006FAA
:1034980038D0222D21D02A2D1FD0426B12685268B5
:1034A80092B24285428D92B21AB1026C42F0040285
:1034B80002645A6822F400625A60606BFEF777F87B
:1034C80001281FD0636B444A1A65606BFEF75CF8ED
:1034D800C0B1606B036D984714E0A26B1268526824
:1034E80092B26285628D92B21AB1226C42F00402E5
:1034F80022645A6822F400625A60A06BFEF757F8FB
:10350800012842D1638D9BB233B323685A6912F004
:10351800040F0AD01A69636A1A70636A0133636216
:10352800638D9BB2013B9BB2638523685A6912F095
:10353800400F0AD01A69636A1A70636A01336362BA
:10354800638D9BB2013B9BB26385638D9BB21BB1BC
:10355800236C43F004032364236C13BB2A2D25D06A
:1035680094F83D30DBB2282B29D0236B222B01D0D5
:10357800222D19D100232363202284F83D2084F8CA
:103588003E302046FFF79FFB0EE0A36B124A1A65F8
:10359800A06BFDF7F9FF0028B4D0A06B036D984726
:1035A800B0E72046FFF79AFE03B030BD002323633F
:1035B800282384F83D302046FFF785FBD0E7074BEA
:1035C800E36200232363202284F83D2084F83E3000
:1035D8002046FFF7CDFBE7E7013200080000FFFFB8
:1035E800F8B5044602685568C66A90F83E30DBB202
:1035F80090F83D10C8B2102B13D0402B11D0236C7B
:10360800002B7AD05369002113F0020F78D015F4FB
:10361800007F75D0236C03B191692046FFF77BFBCF
:10362800F8BDD2F818C0516911F0010705D1B6F5F7
:103638002A0FF5D0B6F12A4FF2D017B115F4007F52
:1036480029D111F0080F02D015F4007F2AD111F00A
:10365800020F02D015F4007F28D11CF0040F31D0DE
:10366800526812F4006FDBD111F0800F05D015F409
:10367800806F02D011F0040F1CD011F0040FCFD0CE
:1036880015F4007FCCD0212818D0402BC8D1204673
:10369800FFF7BFFBC4E72046FEF75FFD2046FEF7B5
:1036A8007DFBBDE72046FEF7CDFBB9E72046FEF7D8
:1036B800DFFBB5E72046FFF70EFCB1E72046FFF732
:1036C80059FBADE7536813F4006FA9D111F0400F0F
:1036D80005D015F4806F02D011F0040F09D011F055
:1036E800040F9DD015F4007F9AD02046FFF75EFCAA
:1036F80096E72046FFF7FBFC92E79169536983E759
:1037080013F0100F02D015F4007F18D121281AD019
:10371800292818D013F0400F05D015F4806F02D077
:1037280013F0040F28D013F0040F3FF479AF15F409
:10373800007F3FF475AF2046FEF7C2FC70E72046D5
:10374800FFF788FE6CE713F0800F05D015F4806F43
:1037580002D013F0040F0BD013F0040F3FF460AF46
:1037680015F4007F3FF45CAF2046FEF799FC57E75D
:103778002046FFF782FA53E72046FFF7A5FA4FE7FE
:1037880030B58BB0002405940694079408940994E6
:1037980001941E4B1A6B42F004021A631A6B02F072
:1037A80004020192019A02941A6B42F080021A6391
:1037B8001A6B02F080020292029A03941A6B42F08A
:1037C80001021A631A6B02F001020392039A04942D
:1037D8001A6B42F002021A631B6B03F00203049394
:1037E800049B0B4D22464FF400512846FDF77CFE02
:1037F8004FF400530593012306930794089405A9F1
:103808002846FDF78DFD0BB030BD00BF00380240E3
:103818000008024008B50B480B4B03600B4B436094
:1038280000238360C3604FF4804202614361836177
:10383800C3610362FEF712FF00B908BDFDF774F912
:10384800FBE700BF6C01002000540040801A06000E
:1038580030B589B000230393049305930693079327
:103868000268184B9A4201D009B030BD0025019575
:10387800154C236B43F002032363236B03F002030D
:103888000193019BC02303931223049303230693FC
:103898000423079303A90D48FDF742FD0295236C05
:1038A80043F400132364236C03F400130293029B74
:1038B8002A4629461F20FDF7D1FE1F20FDF7DEFE10
:1038C800D2E700BF00540040003802400004024024
:1038D80008B50A480A4B03604FF4165343600023A7
:1038E8008360C36003610C2242618361C361FEF798
:1038F80033F800B908BDFDF717F9FBE7C001002050
:103908000010014010B588B0002303930493059379
:1039180006930793026803F1804303F588339A42BC
:1039280001D008B010BD0024019403F594335A6CFB
:1039380042F010025A645A6C02F010020192019A85
:1039480002941A6B42F001021A631B6B03F0010325
:103958000293029B4FF4C06303930223049303234F
:1039680006930723079303A90548FDF7D9FC2246C8
:1039780021462520FDF772FE2520FDF77FFED0E7C2
:10398800000002402DE9F04186B005466423029309
:10399800012301930DF1170200927522D021FEF741
:1039A800EDFF9DF81730682B03D0012006B0BDE865
:1039B800F08100248DF816404FF06408CDF8088097
:1039C800012601960DF11607009733466B22D02188
:1039D8002846FEF721FF07238DF81630CDF808801A
:1039E8000196009733461922D0212846FEF714FF86
:1039F8008DF81640CDF808800196009733461C22B2
:103A0800D0212846FEF708FF8DF81640CDF808802B
:103A18000196009733461B22D0212846FEF7FCFE6C
:103A28002046C3E72DE9F0472DED088B8AB0824682
:103A38008DED020B51EC110B55EC124B9AED087BF6
:103A4800B0EE47BAF0EE67BA53EC172BFCF7A4FBBD
:103A5800DAE9066722462B46FCF756FD02460B4676
:103A680030463946FCF79AFB41EC180BCAE90601C7
:103A7800DAE90A899AED10AB22462B4651EC1A0B6B
:103A8800FCF742FD06460F46CDE900679AED0C6B40
:103A9800B0EE469AF0EE669A53EC162BFCF77CFBD8
:103AA800DAE90E6732463B46FCF776FBDAE9002393
:103AB800FCF774FB22462B46FCF726FD02460B4614
:103AC80040464946FCF76AFB80468946CAE90A89A6
:103AD800DDE9002351EC190BFCF75EFB0A460146B1
:103AE800CDE9041242EC161B8AED0C6BDDE90023CC
:103AF80030463946FCF750FB41EC190BCAE90E0178
:103B080022462B46DAE90201FCF7FEFC02460B4688
:103B180051EC1A0BFCF742FB41EC1A0BCAE91001F5
:103B2800DAE9042340464946FCF738FB04460D46CB
:103B380002460B4640464946FCF710FE06460F462D
:103B4800CDE9066722462B4651EC190BFCF706FE19
:103B580004460D46CDE9084553EC182BDDE9020172
:103B6800FCF71AFB02460B46CDE9002330463946DE
:103B7800FCF7CAFC02460B4651EC180BFCF70EFB8F
:103B880041EC180BCAE90601DDE900232046294665
:103B9800FCF7BAFC02460B4651EC1B0BFCF7FEFA8D
:103BA800CAE9080132463B4640464946FCF7ACFCA8
:103BB80002460B4640464946FCF7EEFACAE90A01B6
:103BC80032463B46DDE9046730463946FCF79CFC43
:103BD80002460B4630463946FCF7DEFACAE90C01C4
:103BE80022462B4640464946FCF78EFC02460B46C9
:103BF80051EC190BFCF7D0FACAE90E0122462B4604
:103C080030463946FCF780FC02460B4651EC1A0B4D
:103C1800FCF7C2FACAE91001B0EE480AF0EE680AE9
:103C28000AB0BDEC088BBDE8F0870000000000007A
:103C38002DE9F0472DED068B88B00C4664230293DE
:103C48000E23019304AB009301233B22D021FEF7FE
:103C580095FE9DF810309DF8110040EA032000B24F
:103C680020809DF812309DF8138048EA03280FFA47
:103C780088F8A4F802809DF814309DF8157047EA7A
:103C880003273FB2A7809DF816301B021BB29DF890
:103C9800172043EA02059DF818309DF819A04AEA52
:103CA800032A0FFA8AFAA4F820A09DF81A309DF882
:103CB8001B9049EA03290FFA89F9A4F822909DF884
:103CC8001C309DF81D6046EA032636B2A684FCF730
:103CD800B1FB0022804BFCF717FCC4E90201404607
:103CE800FCF7A8FB00227C4BFCF70EFCC4E904019E
:103CF8003846FCF79FFB70A3D3E90023FCF72EFDA1
:103D0800C4E9060107EE905AF8EEE77ADFED736A28
:103D180087EEA67ADFED727A77EE277AC4ED107A0D
:103D28005046FCF787FB66A3D3E90023FCF716FD92
:103D3800C4E90A014846FCF77DFB61A3D3E90023E7
:103D4800FCF70CFDC4E90C013046FCF773FB5CA3DF
:103D5800D3E90023FCF702FDC4E90E01FDF7F2FCEC
:103D6800604D2B68C01AFCF755FB00225E4BFCF730
:103D7800F5FC41EC190BFDF7E5FC2860B4F900509F
:103D8800B4F9048008FB08F005FB0500FCF752FBBA
:103D980041EC100B00F010F957EC106B00220023D7
:103DA80030463946FCF718FE002873D1B4F90200F2
:103DB800FCF740FB32463B46FCF7D0FC41EC100BCD
:103DC80000F02EF951EC100B3FA3D3E90023FCF7C8
:103DD8009BFB41EC1A0B6D424046FCF72BFB41EC78
:103DE800180B2846FCF726FBB0EE481AF0EE681AC6
:103DF80041EC100B00F0DEF851EC100B32A3D3E9C4
:103E08000023FCF781FB06460F460022374BFCF7E0
:103E1800EDFD30B10022364BD4E91401FCF704FE65
:103E280070B90022324B30463946FCF7FDFD0028B8
:103E380033D000222D4BD4E91401FCF7D7FD60B331
:103E48002C4BC3E90667C4E91467D4E91423104668
:103E580023F000410022264BFCF7E6FD30B1D4E9FF
:103E68000A01024601F10043C4E90A23B0EE492AD7
:103E7800F0EE692A94ED0A1BB0EE4A0AF0EE6A0ADF
:103E88001D48FFF7CFFD84ED120B08B0BDEC068B83
:103E9800BDE8F0879FED0EAB9DE7B0EE492AF0EE46
:103EA800692A94ED0C1B47EC106B1248FFF7BAFD1A
:103EB80084ED140BC9E700BF000000000029CC40C6
:103EC8000000000000606040F8C1631ADCA54C40A7
:103ED80000000000000000000000103F0000AA439E
:103EE800B81E12420802002000408F40008056C0D1
:103EF800008056401000002058000020DFF834D021
:103F0800FDF73AFC0C480D490D4A002302E0D4584D
:103F1800C4500433C4188C42F9D30A4A0A4C00230B
:103F280001E013600432A242FBD300F017F8FCF75B
:103F38004FFE70470000022000000020F000002023
:103F4800A84A0008F000002044030020FEE7000013
:103F5800014B1868704700BFA000002070B50D4DD8
:103F68000D4C641BA4100026A64209D10B4D0C4C25
:103F780000F030FD641BA4100026A64205D170BDD8
:103F880055F8043B98470136EEE755F8043B984747
:103F98000136F2E7A04A0008A04A0008A04A000833
:103FA800A44A000802440346934200D1704703F82C
:103FB800011BF9E700F0E4B938B52DED028B55EC9B
:103FC800104B00F0B3FA22462B4620462946B0EEA5
:103FD800408AF0EE608AFCF731FD30B900220023F8
:103FE80020462946FCF702FD30B9B0EE480AF0EE4B
:103FF800680ABDEC028B38BDFFF7AAFF0022002338
:104008002121016010461946FCF7A8FB41EC180B6A
:10401800B0EE480AF0EE680ABDEC028B38BD00BF6E
:104028002DE9F84F55EC104BC74B25F000469E4242
:10403800AA4617D9C54B9E420AD807D0BAF1000F35
:1040480040F3CB809FEDA40BBDE8F88F002CF5D092
:1040580022462B4620462946FCF7A0F841EC100BD7
:10406800BDE8F88FBA4B9E4200F2BB80A3F1DE7325
:104078009E4240F2A1804FF0FF3B22462B4620464D
:104088002946FCF741FA02460B4680468946FCF76A
:104098003BFA93A3D3E9002306460F46FCF734FA0C
:1040A80091A3D3E90023FCF779F832463B46FCF7A5
:1040B8002BFA8FA3D3E90023FCF770F832463B466E
:1040C800FCF722FA8CA3D3E90023FCF767F8324601
:1040D8003B46FCF719FA8AA3D3E90023FCF75EF8FC
:1040E80032463B46FCF710FA87A3D3E90023FCF7D6
:1040F80055F842464B46FCF707FA85A3D3E9002357
:104108008046894630463946FCF7FEF982A3D3E952
:104118000023FCF741F832463B46FCF7F5F980A34B
:10412800D3E90023FCF738F832463B46FCF7ECF9B4
:104138007DA3D3E90023FCF72FF832463B46FCF772
:10414800E3F97BA3D3E90023FCF726F832463B4684
:10415800FCF7DAF902460B4640464946FCF71EF8DA
:1041680022462B46FCF7D0F9BBF1FF3F02460B462F
:1041780062D0784B784E03EBCB03D3E90023FCF7EE
:104188000BF822462B46FCF707F806EBCB0602464F
:104198000B46D6E90001FBF7FFFFBAF1000F41EC2F
:1041A800100BBFF65DAF10EE901A024601F1004306
:1041B80043EC102BBDE8F88F5FA3D3E9002320461A
:1041C8002946FBF7EBFF654B0022FCF72DFC002886
:1041D8003FF451AF45EC104B42E79FED590BBDE85A
:1041E800F88F00F0C5F85E4B9E4255EC104B2BD86B
:1041F800A3F550239E4254D822462B4620462946F2
:10420800FBF7CCFF554B0022FBF7C6FF02460B46D7
:104218002046294614461D4600224FF08043FBF7EE
:10422800BDFF02460B4620462946FCF797FA4FF099
:10423800000B04460D4620E720462946FBF7ACFF55
:1042480041EC100BBDE8F88F464B9E421ED2464B00
:10425800002220462946FBF79FFF02460B462046D0
:10426800294614461D4600223F4BFCF74DF93B4BAF
:104278000022FBF793FF02460B4620462946FCF72F
:104288006DFA4FF0020B04460D46F6E622462B4621
:1042980036490020FCF762FA4FF0030B04460D463E
:1042A800EBE62E4B002220462946FBF775FF024617
:1042B8000B462046294614461D460022274BFBF78D
:1042C8006DFF02460B4620462946FCF747FA4FF099
:1042D800010B04460D46D0E6182D4454FB21F93F46
:1042E80011DA22E33AAD903FEB0D76244B7BA93FE0
:1042F800513DD0A0660DB13F6E204CC5CD45B73FAE
:10430800FF8300922449C23F0D5555555555D53F59
:104318002F6C6A2C44B4A2BF9AFDDE522DDEAD3F4D
:104328006D9A74AFF2B0B33F711623FEC671BC3FED
:10433800C4EB98999999C93F9C7500883CE4377EED
:10434800182D4454FB21F9BFFFFF0F440000F07FF4
:10435800FFFFDB3F184A0008384A00080000F03F1A
:10436800FFFFF23F008003400000F83F0000F0BF6D
:1043780051EC100B024621F0004343EC102B704720
:1043880051EC110B43422DE9F0470343644E21F0F1
:10439800004E4EEAD373B34255EC104B40D86342FB
:1043A800234325F0004A4AEAD373B342A046A946FC
:1043B80036D801F1404303F58013034302463ED04B
:1043C8008F1707F002075AEA080847EAD5772FD06F
:1043D8005EEA020237D0B64544D0B24533D0AAEBE4
:1043E8000E0ABAF1747F4FEA2A5338DA002945DAFF
:1043F8003C3343DA9FED3C0B012F5DD0022F4AD0AE
:10440800A7B151EC100B3AA3D3E90023FBF7C4FE84
:1044180039A3D3E90023FBF7BFFE41EC100B05E0FD
:1044280022462B46FBF7BAFE41EC100BBDE8F0879D
:10443800022F0ED0032FF9D19FED310BF6E7BDE81F
:10444800F047FFF7EDBDB9F1000F05DB9FED2E0B2F
:10445800ECE79FED290BE9E79FED2D0BE6E79FEDD4
:104468002A0BC9E7F24507F1FF372ED0022F34D8BF
:104478002C4B03EBC70393ED000BD7E702460B4623
:1044880020462946FCF76AF941EC100BFFF770FF4C
:10449800FFF7C6FDB0E716A3D3E9002351EC100BD4
:1044A800FBF77AFE02460B4613A1D1E90001FBF7A0
:1044B80073FE41EC100BB9E710EE901A53EC102B79
:1044C80001F1004343EC102BB0E7022F08D8164B3C
:1044D80003EBC70393ED000BA8E79FED030BA5E7DC
:1044E8009FED0D0BA2E700BF0000000000000000D8
:1044F800075C143326A6A13C182D4454FB2109401F
:10450800182D4454FB2109C0182D4454FB21F93FB0
:10451800182D4454FB21F9BF182D4454FB21E93FC1
:104528000000F07F584A0008704A00082DE9F84F4B
:10453800764955EC104BA94300F0AB80002D2A4674
:10454800234655DD2C1562D0C2F31302E107A4F20D
:10455800FF3742F4801203D4D90F01EB42025B000B
:104568005200002602EBD3727F105B001624B4467B
:104578004FF400110CEB010090424FEAD3754FEA5B
:10458800430303DC00EB010C121A0E44013C05EB5B
:1045980042024FEA5101EDD1A04620254FF00040DC
:1045A8000AE043D0510001EBD371013D0A464FEABE
:1045B80043034FEA500045D0944508EB000EF0DA6B
:1045C800BEF1000F0EEB00080CDBE146A2EB0C017C
:1045D8009E4588BF01F1FF314900CC46A3EB0E038D
:1045E8000444E0E7B8F1000FEFDB0CF10109EDE757
:1045F80025F00041214346D0002D71D1D90A153A42
:104608005B050029FAD0CE02144676D40A4600216A
:104618005200D502084601F10101F9D5C1F1200582
:1046280023FA05F52A438B40241A8DE79E4502D9C3
:104638004FEA4C01B7E7BEF1000F0EEB000824DB90
:104648000021CBE7194312D0DFF8C4A0DFF8C4B0CB
:10465800DAE90001DBE90023FBF79EFDDAE90089CE
:1046680002460B4640464946FCF7CAF9F8B96508C0
:10467800711001F17F5101F5001101EB075345EA73
:10468800C67243EC102BBDE8F88FB8F1000FACDA16
:10469800D6E722462B4620462946FBF735FF224619
:1046A8002B46FBF77BFD41EC100BBDE8F88FB4F10E
:1046B800FF3FDAE90001DBE9002322D0FBF76EFDBA
:1046C800DAE9008902460B4640464946FCF78EF96E
:1046D800C8B1A31C04F1020508BF01366D08C7E77D
:1046E80022462B4620462946FBF756FD02460B4636
:1046F800FCF734F841EC100BC5E74FF0FF300A46E1
:1047080092E70136B4E70134B1E700BF0000F07F5B
:10471800904A0008884A00082DE9F047089D0E468F
:1047280004460F46002B4AD194468C45B2FA82F2D1
:1047380060D942B1C2F12003974020FA03F30CFA82
:1047480002FC1F4394404FEA1C4E1FFA8CF6B7FB3D
:10475800FEF1230C0EFB117743EA074301FB06F039
:1047680098420AD91CEB030301F1FF3780F0158149
:10477800984240F21281023963441B1AA4B2B3FB77
:10478800FEF00EFB103344EA034400FB06F6A64293
:104798000AD91CEB040400F1FF3380F00081A64223
:1047A80040F2FD806444023840EA0140A41B002125
:1047B8001DB1D4400023C5E90043BDE8F0878B4212
:1047C80005D90DB1C5E9000100210846F5E7B3FA9E
:1047D80083F1002946D1B34202D3824200F2F58028
:1047E800841A66EB030201201746002DE5D0C5E9BF
:1047F8000047E2E7002A40F09380A1EB0C034FEA60
:104808001C471FFA8CFE0121B3FBF7F607FB163095
:10481800230C43EA00430EFB06F0984208D91CEB30
:10482800030306F1FF3802D2984200F2D0804646D0
:104838001B1AA4B2B3FBF7F007FB103344EA034496
:104848000EFB00FEA64508D91CEB040400F1FF335B
:1048580002D2A64500F2B6801846A4EB0E0440EA40
:104868000640A5E7C1F120078B4022FA07FC4CEA75
:10487800030C06FA01FE20FA07F426FA07F344EAC5
:104888000E0400FA01F84FEA1C404FEA1449B3FB42
:10489800F0FE1FFA8CF600FB1E3349EA03430EFBB9
:1048A80006F9994502FA01F20BD91CEB03030EF144
:1048B800FF3A80F08580994540F28280AEF1020E81
:1048C8006344A3EB0909A4B2B9FBF0F300FB139905
:1048D80044EA094403FB06F6A64208D91CEB040483
:1048E80003F1FF3068D2A64266D9023B644443EA2A
:1048F8000E40A41BA0FB02E6B4427346B14652D355
:104908004FD05DB1B8EB030264EB090404FA07F772
:1049180022FA01F31F43CC40C5E9007400214CE79B
:10492800C2F1200120FA01F30CFA02FC26FA01F187
:10493800964033434FEA1C471FFA8CFEB1FBF7F051
:1049480007FB1016190C41EA064100FB0EF68E42D1
:1049580004FA02F408D91CEB010100F1FF382DD24A
:104968008E422BD902386144891B9BB2B1FBF7F602
:1049780007FB161143EA014306FB0EF1994208D9D9
:104988001CEB030306F1FF3814D2994212D9023EF8
:1049980063445B1A46EA004136E73946EDE61846B5
:1049A80002E7F045ADD2BEEB020366EB0C06013818
:1049B800B146A6E74646ECE7034698E74046D3E704
:1049C800D6467EE76444023847E708460DE7023ECC
:1049D80063442DE7F8B500BFF8BC08BC9E46704795
:0C49E800F8B500BFF8BC08BC9E46704744
:1049F80000000D0000000000010203040000000098
:104A08000000000001020304060708090000000076
:104A1800E2652F227F2B7A3C075C143326A6813C63
:104A2800BDCBF07A8807703C075C143326A6913C0E
:104A38004FBB610567ACDD3F182D4454FB21E93FAE
:104A48009BF681D20B73EF3F182D4454FB21F93F9D
:104A58000000000000000080182D4454FB2109408C
:104A6800182D4454FB2109C0182D4454FB21E9BFDB
:104A7800D221337F7CD90240D221337F7CD902C036
:104A880059F3F8C21F6EA501000000000000F03FB6
:084A980088FCFF7F0100000013
:044AA0000D0B0008F2
:044AA400E50A000817
:104AA80001000000100000000024F40000000000D5
:104AB800000000E04D62503F000000C07493683F62
:104AC800000000E051B89E3F000000000000000018
:104AD80000000000000000000000000000000000CE
:104AE80000000000000000000000000000000000BE
:104AF8000000000000000000000000E04D62503F90
:104B0800000000C07493683F000000E051B89E3F69
:104B1800000000000000000000000000000000008D
:104B2800000000000000000000000000000000007D
:104B3800000000000000000000000000000000006D
:104B4800A4000020000000000C02002074020020D5
:104B5800DC0200200000000000000000000000004F
:104B6800000000000000000000000000000000003D
:104B7800000000000000000000000000000000002D
:104B8800000000000000000000000000000000001D
:0400000508003F05AB
:00000001FF
